:020000040800F2
:10000000180800201D1300085D0300085F030008A6
:1000100063030008670300086B030008000000008A
:100020000000000000000000000000006F03000856
:100030007103000800000000730300081F0F000890
:100040003713000837130008371300083713000868
:1000500037130008371300086D0E0008890E0008DA
:100060003713000837130008371300083713000848
:100070003713000837130008371300083713000838
:100080003713000837130008371300083713000828
:100090003713000837130008371300083713000818
:1000A0003713000837130008371300083713000808
:1000B0007503000837130008E30C00083713000825
:1000C00037130008371300083713000837130008E8
:1000D00037130008AF100008310600083713000876
:1000E00037130008371300083713000837130008C8
:1000F00037130008371300083713000837130008B8
:1001000037130008371300083713000837130008A7
:100110003713000837130008371300083713000897
:100120003713000837130008371300083713000887
:1001300000F002F800F090F80AA090E8000C824469
:100140008344AAF10107DA4501D100F085F8AFF246
:10015000090EBAE80F0013F0010F18BFFB1A43F0A5
:10016000010318472C5100004C510000103A24BFE5
:1001700078C878C1FAD8520724BF30C830C144BF0C
:1001800004680C607047000000230024002500264E
:10019000103A28BF78C1FBD8520728BF30C148BFEA
:1001A0000B6070476E2902F09D87702903F0DA809A
:1001B000662904F0FE87652904F0FB87672904F0AF
:1001C000F8876129AFF3008003681B0A28BF41F05C
:1001D0008001692902F04A87642902F0478775295E
:1001E00002F044876F2903F06580782903F0A68028
:1001F000E92902F0FD87E42902F0FA87F52902F0E7
:10020000F787EF2903F06280F82903F0A5800368DF
:10021000DB0928BF41F08001632903F0A184732921
:1002200003F0A684E32903F0B184F32903F0B68434
:10023000002070471FB503F007FD040000200021D7
:1002400004F0EEF9401C60600020002104F0D2F9B7
:10025000E0601FBD10B510BD03F0C8FC1146FFF7EC
:10026000E9FF00F048F803F0A5FD03B4FFF7F2FF43
:1002700003BC00F0B7FE00001FB54FF4E06001F0D2
:100280006DF81C208DF80C0000208DF80D00032067
:100290008DF80E0001208DF80F0003A801F063F81F
:1002A0000121084602F08BFD4FF0804001F0FEFA7C
:1002B0004FF47A70ADF804004720ADF8000000203C
:1002C000ADF80600ADF8020069464FF0804001F03D
:1002D000C1FB0121880702F0DFF9012211469007D6
:1002E00001F02FFF0121880701F010FF00210120FC
:1002F00002F065FD1FBD00F04BFD00F017FC00F0A3
:1003000045F900F08BFC00F0E0FD4FF4E13000F027
:1003100015FEFFF7B1FF00224FF4FA71104600F00E
:10032000C6FB18E00C4800680A2814D30A48006885
:100330000A2803D30848006814280CD3064800682C
:10034000142803D3044800681E2804D300F009FAD7
:10035000002001490860E5E74C000020704700BF1D
:10036000FEE700BFFEE700BFFEE700BFFEE7704705
:100370007047704710B50121880702F08DF90A48CF
:100380000068401C08490860084600680A2807D32E
:1003900006480068401C05490860002002490860C2
:1003A00000F015FC10BD0000380000203C000020CB
:1003B0000CB50020019000906B48006840F480303C
:1003C0006949086000BF6848006800F40030009088
:1003D0000198401C0190009818B90198B0F5A06FE1
:1003E000F1D16148006810F4003F02D00120009074
:1003F00001E0002000900098012842D15B4800688D
:1004000040F01000594908600846006820F00300D9
:1004100008600846006840F00200086052484068E2
:10042000514948600846406848600846406840F4C2
:10043000806048600846406820F47C1048600846A8
:10044000406840F4E81048600846006840F080705A
:10045000086000BF4448006810F0007FFAD04248AE
:10046000406820F00300404948600846406840F07A
:100470000200486000BF3C48406800F00C000828BB
:10048000F9D10CBD10B5FFF793FF10BD10B536487C
:10049000006840F00100344908600846406834496B
:1004A00008403149486008460068324908402E49F2
:1004B00008600846006820F480200860084640680C
:1004C00020F4FE0048604FF41F008860FFF7DAFF59
:1004D0004FF000602849086010BD10B500210020D1
:1004E0000022214B5B6803F00C0121B1042906D0E6
:1004F000082928D107E0214B214C236027E01F4B1E
:100500001F4C236023E0184B5B6803F47010164BFC
:100510005B6803F48032022303EB904022B9194B4D
:100520004343174C23600DE00F4B5B6813F4003F0F
:1005300004D0144B4343124C236003E00F4B43435E
:100540000F4C236003E00D4B0D4C236000BF00BF38
:10055000054B5B68C3F303130B4CE15C084B1B6852
:10056000CB40074C236010BD001002400020024029
:100570000000FFF8FFFFF6FE08ED00E000127A0031
:100580000000002000093D000400002000B587B0F5
:100590000121042002F006FC0121480402F00FFCB6
:1005A0000420ADF8180018208DF81B0003208DF8EA
:1005B0001A0006A9FB4801F02DF80820ADF8180034
:1005C00004208DF81B0006A9F64801F023F84FF42B
:1005D000E13002900020ADF80C00ADF80E00ADF84F
:1005E0001000ADF814000C20ADF8120002A9EE487E
:1005F00002F0ADF8012240F22551EB4802F03FF93C
:100600004FF4A06000F0AAFE26208DF80400002020
:100610008DF805008DF8060001208DF8070001A86F
:1006200000F0A1FE0121E04802F01DF907B000BD75
:1006300010B540F22551DC4802F006FA012812D12B
:10064000D94802F081F9D949D94A12788854084624
:10065000D74A1278815CD74802F072F9D448007802
:10066000401CD3490870D2480078082802D10120E4
:10067000D149087010BD10B500210022CE4B1B7867
:10068000012B35D10023CC4C2370002015E0C74B43
:100690001B5C5E2B0FD1C54C431CE35C5E2B0AD167
:1006A000C31DE35C4D2B05D1C44C20700023C04C0E
:1006B000237004E010BD00BF401C0828E7DD00BF28
:1006C000BE4B1B78991C04E0B84B5B5C1344DAB258
:1006D000491CBA4B1B789B1D9942F5DBB34CB74BB9
:1006E0001B789B1DE35C934202D10123B44C237021
:1006F00000BFDFE710B500BFAC4CB0480078001D6C
:10070000205C00F00F03AD480078401D205C011113
:10071000AA480078401D205C00F00F026420584376
:1007200001EB810400EB4400104410BD10B500BF84
:100730009E4CA2480078C01C205C03119F480078A2
:10074000C01C205C00F00F019C480078001D205C5C
:1007500002116420584301EB810400EB4400104473
:1007600010BD70B500240025FFF785FF9448007880
:10077000012800D070BD0020914908708B498F4836
:100780000078801C085C00F0C000402873D1FFF79F
:10079000CDFF0446FFF7AEFF054684498748007841
:1007A000801C085C10F0300F0FD131217E4802F020
:1007B000C7F800BF40217C4802F030F90128F9D188
:1007C00000222946204600F072F978497B480078DB
:1007D000801C085C00F0300010280FD132217248D4
:1007E00002F0AEF800BF40216F4802F017F901286F
:1007F000F9D101222946204600F059F96B496F488A
:100800000078801C085C00F0300020280ED13321D5
:10081000654802F095F800BF4021634802F0FEF8F9
:100820000128F9D10221204600F091F95F4963487F
:100830000078801C085C00F03F003F2805D10121B2
:10084000084602F0BCFA00F0C2F958495B4800784B
:10085000801C085C00F03F0030280CD100210120F2
:1008600002F0ADFA0020574908605749086057491F
:100870000880091D088000BF7CE72DE9F04F89B092
:100880000020059000BF49494C480078C01C085C16
:100890000011089049480078C01C085C00F00F0067
:1008A000079046480078001D085C001106904348F8
:1008B0000078001D085C00F00F000590059803F01B
:1008C0009FFF8046424A434B03F0AEFF04460D466D
:1008D000069804F019FB0390079901EB8101480089
:1008E00004F0FAFA0290089804F00EFB3A490090DE
:1008F00004F01EFB0190029904F0AAF981460399C5
:1009000004F0A6F9804604F077F9064622462B4605
:1009100003F0CEFE824603F099FE0490049809B0DD
:10092000BDE8F08F70B50023642490FBF4F4E1B2CD
:100930000A2490FBF4F40A2594FBF5F605FB164413
:10094000E2B200BF0C0742EA1464244DEC702C465E
:10095000247904F00F042C712C46247944EA031402
:100960002C7170BD70B50023642490FBF4F4E1B2E7
:100970000A2490FBF4F40A2594FBF5F605FB1644D3
:10098000E2B200BF154C247904F0F004134D2C7131
:100990002C4624790C432C71140743EA14646C71BF
:1009A00070BD000000080140004400401400002019
:1009B0002C000020003801402A00002034000020D4
:1009C0002B000020380000203C00002034040040B0
:1009D0009A9999999999B93F0000C8421C00002042
:1009E00008B501210C2002F0DDF94FF4C070ADF81C
:1009F000000003208DF8020010208DF803006946E6
:100A0000824800F007FEC020ADF8000003208DF8FA
:100A1000020018208DF8030069467D4800F0FAFDB9
:100A200008BD00B587B00121022002F0C8F979485D
:100A300000F03CFF40F2E730ADF814000020ADF8C4
:100A40001000ADF81600ADF8120004A9714801F0CD
:100A500001F86020ADF800000020ADF8080001208A
:100A6000ADF802004FF4FA70ADF806006946694827
:100A700001F02DF80821674801F078FC0120ADF85D
:100A800002004FF4FA70ADF806006946614801F0C3
:100A900060F808215F4801F072FC01215D4801F017
:100AA00035FC01215B4801F031FB07B000BD2DE9A9
:100AB000F04104460D4616460027B8464EB94FF49D
:100AC0008071524800F053FE8021504800F04FFEE4
:100AD0000BE0012E09D131024C4800F046FE802186
:100AE0004A4800F042FEC4F57A74A5F5FA75671914
:100AF000A4EB050840F2B630874201DB074602E06E
:100B0000002F00DC002740F2B630804501DB804634
:100B100004E0B8F1000F01DC4FF000083D4934312A
:100B20000F80091DA1F80080BDE8F08110B5FFF726
:100B300057FFFFF776FF002211461046FFF7B7FF79
:100B400001224FF4FA710020FFF7B1FF10BD2DE92B
:100B5000F04106460F46002400253446354640F253
:100B6000B630844201DB044602E0142C00DC14247D
:100B700040F2B630854201DB054602E0142D00DC70
:100B80001425032F10D14FF48071204800F0EFFDA1
:100B900080211E4800F0E9FD1E4934310C80C5F566
:100BA0007A70091D088010E0022F0ED1F901174854
:100BB00000F0DBFD8021154800F0D9FDC4F57A7006
:100BC000144934310880091D0D80BDE8F08110B54D
:100BD0004FF480710D4800F0CAFD80210B4800F0F1
:100BE000C6FD4FF47A700B49383108800A48006816
:100BF000B0F5487F03D94FF44870074908600648AC
:100C0000008804493431088010BD0000000C014008
:100C100000080140000400403C00002000B585B001
:100C20000121082002F0BEF82020ADF800000320CA
:100C30008DF8020010208DF8030069464D4800F041
:100C4000E9FC20214B4800F092FD4020ADF8000067
:100C500003208DF8020028208DF8030069464548DE
:100C600000F0D8FC0121042002F0A9F84FF47A70BA
:100C7000ADF80C004720ADF808000020ADF80A00E0
:100C800002A93D4800F0E6FE01213B4801F004FDC9
:100C900001221146384801F054FA1E208DF8040054
:100CA00000208DF8050005208DF8060001208DF844
:100CB000070001A800F057FB05B000BD10B50021EA
:100CC0002D4801F0B7FC00202C49088001212A485A
:100CD00001F01CFA10BD10B50021274801F016FAEA
:100CE00010BD10B50121244801F0D9FC40B101210B
:100CF000214801F0E5FC21480088401C1F4908807C
:100D000010BD10B500BF1D4800884FF47A7100FB7C
:100D100001F4194801F0B1FC0444204610BD70B53F
:100D200000250120164908604FF00A0000F0C0F8C5
:100D300000201449C1F8940100BF1348006800283E
:100D4000FBD0FFF7BBFF00BF0F4800680128FBD0B6
:100D5000FFF7C1FFFFF7D5FF0546284604F0D4F89A
:100D600006460A4903F0D6FF0446204604F094F8EC
:100D700070BD0000000C0140000800404000002051
:100D80009481214200802142188121420000684262
:100D90001FB50121092002F005F806208DF800009A
:100DA00000208DF8010003208DF8020001208DF84D
:100DB0000300684600F0D7FA07208DF800000020F5
:100DC0008DF8010004208DF8020001208DF8030049
:100DD000684600F0C8FA0120ADF80C0048208DF8F4
:100DE0000F0003208DF80E0003A92E4800F012FC1E
:100DF0000220ADF80C0048208DF80F0003208DF87C
:100E00000E0003A9274800F005FC0021012000F096
:100E100015FD0120019000208DF8080008208DF8B4
:100E2000090001208DF80A0001A800F013FB012140
:100E3000084600F003FD0220019000208DF8080014
:100E400008208DF8090001208DF80A0001A800F0A3
:100E500001FB1FBD14490968144A1268114448086F
:100E60000021114A1160114A1160704710B501202C
:100E700000F056FB38B10C480068401C0A49086075
:100E8000012000F05EFB10BD10B5022000F048FB11
:100E900038B106480068401C04490860022000F090
:100EA00050FB10BD000C0140440000204800002011
:100EB000002107E0002201E0531C9AB20A2AFBDB62
:100EC0004B1C99B28142F5DB704730B5174800687A
:100ED0004FF47A72B0FBF2F1B1F1807F00D31DE0E4
:100EE00021F07F40401E4FF0E022506150170F224A
:100EF000002807DA13071D0E0D4B00F00F04241F06
:100F00001D5503E013071C0E0A4B1C5400BF0020A4
:100F10004FF0E02290610720106100BF30BD06480D
:100F20000068401C04490860704700000000002071
:100F300018ED00E000E400E04C00002010B586B0A1
:100F40000446012144F2040001F02CFF234801F083
:100F5000BBFB4FF40070ADF8140003208DF81600B1
:100F600018208DF8170005A91D4800F053FB4FF419
:100F70008060ADF8140004208DF8170005A918480A
:100F800000F048FB01940020ADF80800ADF80A001D
:100F9000ADF80C00ADF810000C20ADF80E0001A962
:100FA0000E4801F0D4FB25208DF8000003208DF8B9
:100FB00001008DF8020001208DF80300684600F062
:100FC000D2F9012240F22551044801F058FC0121D8
:100FD000024801F048FC06B010BD00000038014096
:100FE00000080140014600BF704700BFB94A12889F
:100FF00012F0400FFAD0C2B2B64B1B1D1A807047D8
:1010000010B5C821B44801F0A6FF0020B3490880FC
:1010100010BD10B586B00446012144F2040001F071
:10102000C1FE4FF40070ADF8140003208DF81600D7
:1010300018208DF8170005A9A94800F0EBFA4FF425
:101040008060ADF8140004208DF8170005A9A448AD
:1010500000F0E0FA25208DF8000003208DF8010053
:101060008DF8020001208DF80300684600F07BF93E
:1010700001940020ADF80800ADF80A00ADF80C00AE
:10108000ADF810000C20ADF80E0001A9914801F058
:101090005EFB012240F225518E4801F0F0FB012158
:1010A0008C4801F0E0FBFFF7ABFF06B010BD10B5B8
:1010B00040F22551874801F0C7FC002839D0854807
:1010C00001F042FCC4B2242C02D1002083490880E4
:1010D000824801880088401C804A10807E48445421
:1010E000007824281ED17C4800794D281AD17A48EE
:1010F0004079432816D10A2C14D15021794801F0A7
:101100002AFF764802887449764801F0DFFE012004
:10111000744981F85000002070490880C8216E4849
:1011200001F019FF6D480088C82802DBC8206B4910
:10113000088010BD044603E021466BA001F0A8FE24
:10114000FAE7F8B50026674890F85000002866D006
:101150000020644981F8500000BF5EE046B964A1F8
:10116000604801F0A1FE040055D10120FFF7E2FF25
:10117000641C5FA1204601F097FE050048D0072EB1
:101180002ED2DFE806F02D040B11181F26002A1BB3
:1011900021465448523001F099FE22E02A1B214694
:1011A000684601F093FE1CE02A1B21464D485D3045
:1011B00001F08CFE15E02A1B21464A48683001F0F8
:1011C00085FE0EE02A1B214646486A3001F07EFE6D
:1011D00007E02A1B21464348763001F077FE00E005
:1011E00000BF00BF2C4601203E4981F851009DF808
:1011F0000000412803D1012081F8780007E09DF824
:101200000000562803D10020364981F8780002E01A
:101210000220FFF78FFF701CC6B2062E9EDDF8BDC0
:1012200010B5304890F85100002822D000202D49F8
:1012300081F85100084690F87800B8B1002081F894
:1012400078002CA001F024FE26485D3001F014FE49
:101250002BA001F01DFE2CA001F01AFE21486A30DF
:1012600001F00AFE2BA001F013FE02E01EA001F027
:101270000FFE10BD10B504462146174801F014FEBC
:1012800008B1012010BD0020FCE710B50020154971
:1012900081F8500081F8510081F878005021114800
:1012A00001F059FE0F485230002101604160018178
:1012B00081720B3001604160018181725D38A0F85C
:1012C00068106A300160416081606A38A0F8761069
:1012D00010BD000000380140E9000020500000204F
:1012E00000080140700000204552524F520000009B
:1012F0002C0000004C415453544152540000000053
:101300004C4154454E4400004C4F4E5354415254AE
:10131000000000004C4F4E47454E440009488047AE
:1013200009480047FEE7FEE7FEE7FEE7FEE7FEE7C7
:10133000FEE7FEE7FEE7FEE704480549054A064BDF
:10134000704700008D0400083101000818020020D9
:101350001808002018040020180400203149014317
:10136000314A1160704770B5002100230F22C47804
:101370000CB32D4C246804F4E064C4F5E064210A45
:10138000C1F10403CA40447804FA03F1847814409C
:1013900021430901254C0678A155047804F01F0566
:1013A0000124AC4005786D114FF0E02606EB850571
:1013B000C5F8004109E0047804F01F050124AC40A1
:1013C0001B4D0678761145F8264070BD194A0A4033
:1013D0000243154B1B1F1A60704739B1124A121D88
:1013E00012680243104B1B1D1A6006E00E4A121DC4
:1013F000126882430C4B1B1D1A607047042808D1E9
:101400004FF0E021096941F004014FF0E022116141
:1014100007E04FF0E021096921F004014FF0E022DC
:10142000116170470000FA050CED00E000E400E0F7
:1014300080E100E080FFFF1F002044490860091D93
:101440000860091D0860091D086041483F491431C2
:101450000860704700213D498279002A3AD00A4647
:10146000126803689A430B461A600A1D12680368E3
:101470009A430B1D1A60027911440A6803681A43E3
:101480000A60324A0832126803689A432F4B0833C5
:101490001A601A1D126803689A432C4B0C331A60A9
:1014A0004279102A0ED11A1F126803681A43274B7B
:1014B00008331A601A1D126803681A43234B0C3351
:1014C0001A600DE02149427911440A6803681A4301
:1014D0000A6005E0027911440A6803689A430A60C9
:1014E00070470021016001710C214171002181715F
:1014F00070471649103109680143144A10321160CF
:10150000704701460020114A143212680A4201D085
:10151000012000E0002070470C491431086070473A
:10152000014600200022094B1B6803EA0102074B19
:1015300014331B680B4202D00AB1012000E00020E6
:1015400070470249143108607047000000040140F0
:10155000FFFF0F0010B50446CA48844208D101219C
:10156000042001F039FC0021042001F035FC46E0A4
:10157000C548844208D10121082001F02DFC00213A
:10158000082001F029FC3AE0C048844208D101213A
:10159000102001F021FC0021102001F01DFC2EE0A4
:1015A000BB48844208D10121202001F015FC002114
:1015B000202001F011FC22E0B648844208D101212C
:1015C000402001F009FC0021402001F005FC16E05C
:1015D000B148844208D10121802001F0FDFB0021A7
:1015E000802001F0F9FB0AE0AC48844207D10121D8
:1015F000801501F0F1FB0021A01501F0EDFB10BDFD
:1016000010B50121084601F0E7FB0021012001F09F
:10161000E3FB10BD2DE9F041024600250026002025
:1016200000230024002791F803C00CF00F0591F867
:1016300003C01CF0100F03D091F802C04CEA05055E
:1016400091F800C0BCF1000F31D0146800202BE0ED
:101650004FF0010C0CFA00F3B1F800C00CEA0306DD
:101660009E4220D183004FF00F0C0CFA03F7BC43CD
:1016700005FA03FC4CEA040491F803C0BCF1280FFE
:1016800006D14FF0010C0CFA00FCC2F814C00AE0BD
:1016900091F803C0BCF1480F05D14FF0010C0CFAD2
:1016A00000FCC2F810C0401C0828D1D31460B1F867
:1016B00000C0BCF1FF0F34DD546800202EE000F1C3
:1016C000080C4FF0010808FA0CF3B1F800C00CEA5E
:1016D00003069E4221D183004FF00F0C0CFA03F752
:1016E000BC4305FA03FC4CEA040491F803C0BCF1C6
:1016F000280F05D100F1080C08FA0CF8C2F8148084
:1017000091F803C0BCF1480F07D100F1080C4FF06D
:10171000010808FA0CF8C2F81080401C0828CED343
:101720005460BDE8F0814FF6FF71018002218170A5
:101730000421C17070470246002093680B4201D01B
:10174000012000E0002070470146886880B27047A1
:1017500002460020D3680B4201D0012000E00020A7
:1017600070470146C86880B27047016170474161A7
:1017700070470AB1016100E041617047C160704784
:101780004FF480320A438261816182618269826999
:10179000704702460020424B18684FF6807318408D
:1017A00040EA021008433E4B186070473D49C8614B
:1017B0007047F0B50A46002300240021002500F000
:1017C0000046B6F1004F02D1354EF16901E0344ECA
:1017D0007168C0F3034583B200F44016B6F5401FAC
:1017E00008D121F070612E4E766826F070662C4F7D
:1017F0007E6012E000F48016B6F5801F06D1032645
:1018000006FA05F4A14341F0706106E0460D360189
:1018100003FA06F6B14341F0706122B1460D36017C
:1018200003FA06F6314300F00046B6F1004F02D14C
:101830001B4EF16101E01A4E7160F0BD30B500221F
:101840008B071C0F0F2303FA04F2154B08338C107F
:1018500053F824309343124C08348D1044F825304B
:1018600023468C1053F824308C07240F00FA04F41C
:1018700023430B4C08348D1044F8253030BD0A4901
:101880000860704700080140000C01400010014052
:101890000014014000180140001C014000200140DC
:1018A0000000014000002042DC00204210B5044648
:1018B000FE48844208D10121C01401F08DFA0021B4
:1018C000E01401F089FAC4E0B4F1804F08D101219D
:1018D000084601F08EFA0021012001F08AFAB8E0F2
:1018E000F348844208D10121022001F082FA00214C
:1018F000022001F07EFAACE0EE48844208D10121DA
:10190000042001F076FA0021042001F072FAA0E030
:10191000E948844208D10121082001F06AFA002137
:10192000082001F066FA94E0E448844208D10121DD
:10193000102001F05EFA0021102001F05AFA88E030
:10194000DF48844208D10121202001F052FA002111
:10195000202001F04EFA7CE0DA48844208D10121CF
:10196000401401F039FA0021601401F035FA70E0FA
:10197000D548844209D10121C80401F02DFA002183
:101980004FF4002001F028FA63E0D048844209D1E6
:101990000121080501F020FA00214FF4801001F028
:1019A0001BFA56E0CA48844209D10121480501F0DA
:1019B00013FA00214FF4001001F00EFA49E0C54877
:1019C000844208D10121402001F013FA0021402077
:1019D00001F00FFA3DE0C048844208D10121802087
:1019E00001F007FA0021802001F003FA31E0BB4842
:1019F000844208D10121801501F0FBF90021A015D6
:101A000001F0F7F925E0B648844209D10121080424
:101A100001F0E2F900214FF4803001F0DDF918E027
:101A2000B048844209D10121480401F0D5F90021D0
:101A30004FF4003001F0D0F90BE0AB48844208D1FC
:101A40000121880401F0C8F900214FF4802001F041
:101A5000C3F910BD00220288944B98420ED0994BD6
:101A600098420BD0B0F1804F08D0914B984205D0EE
:101A7000904B984202D0904B984204D14FF68F730E
:101A80001A404B881A438D4B984207D08C4B984292
:101A900004D04FF6FF431A40CB881A4302808B884C
:101AA00083850B880385814B98420BD0854B9842E8
:101AB00008D08B4B984205D08A4B984202D08A4B73
:101AC000984201D10B7A038601238382704770B557
:101AD000002400220023058C4FF6FE763540058455
:101AE000028C8388048B4FF68F752C40B51E2C40DA
:101AF0000D882C43751E2A400D892A434D882A43A0
:101B00006A4DA8420BD06F4DA84208D0744DA84230
:101B100005D0744DA84202D0734DA84213D14FF6A0
:101B2000F7752A404D892A434FF6FB752A408D8868
:101B30002A434FF6FF652B404FF6FF552B408D890A
:101B40002B43CD892B4383800483CD8885860284F3
:101B500070BD70B5002400220023058C4FF6EF768F
:101B600035400584028C8388048B48F6FF752C4031
:101B70004FF6FF452C400D884FF6FF7606EA052507
:101B80002C434FF6DF752A400D8906EA05152A43D6
:101B90004D8806EA05152A43444DA84202D0494D16
:101BA000A8421DD14FF67F752A404D894FF6FF762A
:101BB00006EA05152A434FF6BF752A408D8806EAC6
:101BC00005152A434FF6FF352B404FF2FF752B408A
:101BD0008D8906EA85052B43CD8906EA85052B43C9
:101BE00083800483CD880587028470BD70B500248E
:101BF00000220023058C4FF6FF6635400584028CD9
:101C00008388848B4FF68F752C404FF6FC752C40E3
:101C10000D882C434FF6FF552A400D894FF6FF766D
:101C200006EA05252A434D8806EA05252A431F4D65
:101C3000A84202D0234DA8421DD14FF2FF752A4081
:101C40004D894FF6FF7606EA05252A434FF6FF3504
:101C50002A408D8806EA05252A434EF6FF752B405B
:101C60004DF6FF752B408D8906EA05152B43CD896E
:101C700006EA05152B4383808483CD8885870284FB
:101C800070BD70B5002200230024058C4EF6FF764F
:101C900035400584038C8488828B48F6FF752A4082
:101CA0004FF6FF452A400D8820E00000002C01403F
:101CB0000004004000080040000C004000100040FC
:101CC0000014004000340140004C0140005001402D
:101CD0000054014000180040001C0040002000405B
:101CE0000040014000440140004801404FF6FF76AB
:101CF00006EA05252A434DF6FF752B400D8906EAB5
:101D000005352B434D8806EA05352B43FA4DA8428D
:101D100002D0FA4DA84208D14BF6FF752C408D89B0
:101D20004FF6FF7606EA85152C4384808283CD88A2
:101D3000A0F84050038470BD828B4FF2FF331A40ED
:101D40008283828B4FF6FF7303EA01231A43828357
:101D50007047F0B50C461546002200210026078C7E
:101D60004EF6FF7C07EA0C070784828B018C4FF646
:101D7000FF7707EA043640F6FF473A404FF6FF7711
:101D800007EA05273A434FF6FF7707EA03373A4356
:101D9000D94FB8420ED0D94FB8420BD0B0F1804FD6
:101DA00008D0D74FB84205D0D64FB84202D0D64F50
:101DB000B84206D14DF6FF77394046F48057394393
:101DC00005E047F6FF57394044F480573943828392
:101DD0000184F0BD828B4FF6F3731A408283828BAD
:101DE0000A4382837047F0B50C4615460022002155
:101DF0000026078C4FF6FF6C07EA0C070784828BDE
:101E0000018C4FF6FF7707EA04264FF60C773A402D
:101E10004FF6FF7707EA03172F433A43B64FB8420E
:101E20000ED0B64FB8420BD0B0F1804F08D0B44FAF
:101E3000B84205D0B34FB84202D0B34FB84206D132
:101E40004FF6FF57394046F48077394305E04FF2AB
:101E5000FF57394044F48077394382830184F0BDD1
:101E6000028B4FF2FF331A400283028B4FF6FF734F
:101E700003EA01231A4302837047F0B50C46154666
:101E8000002200210026078C4FF6EF7C07EA0C07A2
:101E90000784028B018C4FF6FF7707EA041640F6A1
:101EA000FF473A404FF6FF7707EA03373A434FF6CA
:101EB000FF7707EA05273A438F4FB8420ED08F4F7E
:101EC000B8420BD0B0F1804F08D08D4FB84205D04A
:101ED0008C4FB84202D08C4FB84206D14FF6DF7714
:101EE000394046F01007394305E04FF65F77394037
:101EF00044F01007394302830184F0BD028B4FF692
:101F0000F3731A400283028B0A4302837047F0B5D1
:101F10000C46154600220021068C4FF6FE773E4007
:101F20000684028B018C4FF60C7632407E1C06EA4A
:101F300003162E433243704EB0420ED06F4EB04265
:101F40000BD0B0F1804F08D06D4EB04205D06D4E31
:101F5000B04202D06C4EB04206D14FF6FD76314011
:101F600044F00106314305E04FF6F576314044F088
:101F70000106314302830184F0BD70B505460C466D
:101F80005D4885420ED05D4885420BD0B5F1804F4B
:101F900008D05B48854205D05A48854202D05A484D
:101FA000854200D100E000BF208850B92389A28873
:101FB00061882846FFF7ABFFE1882846FFF79EFFC0
:101FC00025E0208804280AD12389A2886188284630
:101FD000FFF753FFE1882846FFF742FF17E020880C
:101FE00008280AD12389A28861882846FFF7FBFECA
:101FF000E1882846FFF7EEFE09E02389A288618880
:102000002846FFF7A6FEE1882846FFF795FE70BD3B
:102010002DE9F04105460C4600260127608808B9E5
:10202000022600E00026A088012801D1022700E056
:1020300001272088A0B92389A28861882846FFF754
:1020400066FFE1882846FFF759FF23893A46314663
:102050002846FFF712FFE1882846FFF701FF13E04B
:102060002389A28861882846FFF707FFE188284670
:10207000FFF7F6FE23893A4631462846FFF747FF29
:10208000E1882846FFF73AFFBDE8F0810A884B88CF
:102090001A438B881A43CB881A430B891A434B89FE
:1020A0001A438B891A43A0F8442070474FF6FF71FA
:1020B000818000210180C180418001727047002130
:1020C000018041808180C180018141818181C18104
:1020D0007047002101804180012181800021C18061
:1020E000018170470021018041808180C180018190
:1020F0004181818170470000002C01400034014083
:102100000004004000080040000C004021B102889B
:1021100042F00102028004E002884FF6FE731A408A
:102120000280704731B1B0F8442042F40042A0F878
:10213000442005E0B0F84420C2F30E02A0F8442089
:1021400070471AB183890B43838102E083898B43F3
:10215000838170478182704741EA0203A0F84830CA
:1021600070471AB183890B43838102E083898B43D3
:102170008381704701894FF6F872114001817047E1
:102180000A46002101894FF68F73194011430181DE
:10219000704730B504460D4629462046FFF7F0FF4C
:1021A000208940F00700208130BD2DE9F041044630
:1021B0000D4616461F46602D06D13B46012231468C
:1021C0002046FFF75AFE05E03B46012231462046F5
:1021D000FFF79DFE29462046FFF7D2FF208940F0F9
:1021E00007002081BDE8F08130B50C46002101894F
:1021F000C9B24FF6FF7505EA032515432543294368
:10220000018130BD2DE9F04105460E46174698463E
:10221000002443463A4631462846FFF7E5FF2C891D
:102220004FF6F870044044F007044FF68F700440F6
:1022300044F070042C81BDE8F081F0B504460D46F1
:1022400016461F463B46324629462046FFF7CCFF3E
:10225000208940F480402081F0BD01858282704752
:102260000A46002101884FF68F73194011430180FF
:102270007047F0B50C4615461E460021002200238B
:102280000189028B038C4FF6F877394021434FF6D2
:10229000FC473A4040F201173A434FF6DD773B40A6
:1022A0004FF6FF7707EA06172F433B43018102836E
:1022B0000384F0BD0A460021018B4FF68F7319404D
:1022C0001143018370470A460021018B48F6FF73D2
:1022D00019404FF6FF7303EA022319430183704745
:1022E0000A460021818B4FF68F7319401143818379
:1022F00070470A460021818B48F6FF7319404FF65C
:10230000FF7303EA022319438183704721B10288D6
:1023100042F08002028004E002884FF67F731A4088
:102320000280704721B1828842F00402828004E07A
:1023300082884FF6FB731A408280704721B18288F1
:1023400042F00802828004E082884FF6F7731A4058
:102350008280704721B1828842F00102828004E0CD
:1023600082884FF6FE731A40828070470A46002129
:10237000018B4FF6F77319401143018370470A46EA
:102380000021018B4FF2FF7319404FF6FF7303EAF0
:1023900002231943018370470A460021818B4FF6BF
:1023A000F77319401143818370470A460021818BDE
:1023B0004FF2FF7319404FF6FF7303EA02231943EC
:1023C000818370470A460021018B4FF6FB73194049
:1023D0001143018370470A460021018B4FF6FF33FA
:1023E00019404FF6FF7303EA022319430183704734
:1023F0000A460021818B4FF6FB73194011438183FC
:1024000070470A460021818B4FF6FF3319404FF683
:10241000FF7303EA02231943818370470A460021B0
:10242000018B4FF67F7319401143018370470A46B1
:102430000021018BC1F30E014FF6FF7303EA022363
:102440001943018370470A460021818B4FF67F7341
:1024500019401143818370470A460021818BC1F3E3
:102460000E014FF6FF7303EA02231943818370477D
:102470000A460021018C4FF6FD7319401143018477
:1024800070470A460021018C4FF6F773194011433B
:10249000018470470A460021018C4FF6DF73194012
:1024A0004FF6FF7303EA02131943018470470A468B
:1024B0000021018C4FF67F7319404FF6FF7303EA3A
:1024C00002131943018470470A460021018C4FF61C
:1024D000FF5319404FF6FF7303EA022319430184A7
:1024E00070470A460021018C4FF2FF7319404FF6E6
:1024F000FF7303EA02231943018470470A4600214F
:10250000018C4DF6FF7319404FF6FF7303EA023357
:1025100019430184704730B5002301248C40A3B2D5
:10252000048C9C430484048C02FA01F5ADB22C4364
:10253000048430BD30B5002304248C40A3B2048C45
:102540009C430484048C02FA01F5ADB22C4304844C
:1025500030BD70B503460020002418461830012510
:102560008D40ACB21D8CA5431D8409B1082909D149
:1025700000EB6100056825F07005056005681543EE
:1025800005600EE00D1FC5F34E052844056825F4CF
:10259000E045056005684FF6FF7606EA02263543FA
:1025A000056070BD21B1028842F00202028004E0A1
:1025B00002884FF6FD731A400280704721B10288ED
:1025C00042F00402028004E002884FF6FB731A40D6
:1025D0000280704721B1828842F08002828004E04C
:1025E00082884FF67F731A408280704702884FF6C8
:1025F000F7731A40028002880A430280704782887B
:102600004FF68F731A40828082880A438280704717
:1026100002894FF6F8731A40028102890A43028147
:10262000704702894FF67F731A40028102890A437C
:102630000281704781847047818570478186704729
:102640000187704781877047A0F840107047028863
:102650004FF6FF431A40028002880A430280704707
:102660000146888E70470146088F70470146888F63
:1026700070470146B1F8400070470146888C7047AA
:102680000146088D704702460020138A0B4201D094
:10269000012000E000207047CA430282704730B535
:1026A0000246002000230024158A05EA01039589CB
:1026B00005EA010413B10CB1012000E0002030BD97
:1026C000CA4302827047000010B50446FB488442AA
:1026D00009D10121880300F07FFB00214FF48040E5
:1026E00000F07AFB32E0F648844209D10121480427
:1026F00000F07FFB00214FF4003000F07AFB25E072
:10270000F048844209D10121880400F072FB0021C5
:102710004FF4802000F06DFB18E0EB48844209D1B3
:102720000121C80400F065FB00214FF4002000F0F7
:1027300060FB0BE0E548844208D10121080500F068
:1027400058FB00214FF4801000F053FB10BD2DE921
:10275000F04786B005460E460024A24600BFA146BB
:102760000027B08900B100BF2F462C8A4CF6FF70BD
:102770000440F08804432C82AC894EF6F3100440E8
:10278000B08831890843718908430443AC81AC8A1D
:102790004FF6FF400440B0890443AC8201A800F02A
:1027A00094FAC648874202D1DDF810A001E0DDF8B6
:1027B0000CA0A88910F4004F08D00AEBCA0000EB67
:1027C0000A1031684900B0FBF1F807E00AEBCA00D3
:1027D00000EB0A1031688900B0FBF1F86420B8FB07
:1027E000F0F004012009642101FB1089A88910F48C
:1027F000004F08D0322000EBC900B0FBF1F000F030
:102800000700044308E0322000EB09106421B0FB0C
:10281000F1F000F00F0004432C8106B0BDE8F08712
:102820004FF41651016000218180C18001810C218B
:10283000418100218181704710B502460020108A35
:102840004FF2FF0318400B884C8823438C882343A6
:10285000CC8823431843108210BD002101804180A1
:102860008180C180704721B1828942F40052828107
:1028700004E082894DF6FF731A4082817047F0B5FB
:1028800003460024002600250020A1F510676A3FBA
:1028900000D100BF1846C1F3421401F01F06012702
:1028A00007FA06F5012C01D10C3004E0022C01D10D
:1028B000103000E014301AB107682F43076002E0BF
:1028C0000768AF430760F0BD1AB1838A0B43838268
:1028D00002E0838A8B4383827047028A4FF6F0734B
:1028E0001A400282028A0A430282704782894FF2AA
:1028F000FF731A40828182890A438281704721B125
:10290000828942F00202828104E082894FF6FD73DF
:102910001A4082817047028A4FF6DF731A400282A2
:10292000028A0A430282704721B1028A42F480423D
:10293000028204E0028A4BF6FF731A40028270475B
:10294000C1F308028280704701468888C0F30800FE
:102950007047818941F0010181817047028BD2B2B9
:102960000283028B42EA012202837047028B02F447
:102970007F420283028B0A430283704721B1828A1D
:1029800042F02002828204E0828A4FF6DF731A400E
:102990008282704721B1828A42F01002828204E072
:1029A000828A4FF6EF731A408282704721B1828A81
:1029B00042F00802828204E0828A4FF6F7731A40DE
:1029C0008282704721B1828942F40042828103E011
:1029D0008289C2F30E028281704721B1828A42F459
:1029E0000062828204E0828A4FF2FF731A40828280
:1029F0007047828A4FF6FB731A408282828A0A43AA
:102A00008282704721B1828A42F00202828204E00F
:102A1000828A4FF6FD731A40828270470246002078
:102A2000B1F5007F00D100BF13880B4201D0012017
:102A300000E00020704701F40072B2F5007F00D181
:102A400000BFCA430280704770B5024600240023CD
:102A500000250020A1F510666A3E00D100BFC1F339
:102A6000421501F01F03012606FA03F3012D02D1DE
:102A70009689334006E0022D02D1168A334001E0E8
:102A8000968A33400C12012606FA04F41688344064
:102A900013B10CB1012000E0002070BD10B5002280
:102AA0000023A1F510646A3C00D100BF0A12012482
:102AB0009440A3B2DC43048010BD00000038014004
:102AC0000044004000480040004C004000500040DE
:102AD000DD48006840F00100DB49086008464068B6
:102AE000DA490840D849486008460068D849084093
:102AF000D54908600846006820F480200860084630
:102B0000406820F4FE0048604FF41F008860704762
:102B1000CD49096821F48031CB4A1160114609681A
:102B200021F480211160B0F5803F03D0B0F5802FF3
:102B30000ED106E0C449096841F48031C24A1160EF
:102B400007E0C149096841F4A021BF4A116000E0D3
:102B500000BF00BF704710B50146002200230020CF
:102B60004A11012A02D1B84C236806E0022A02D198
:102B7000B54C236A01E0B44C636A01F01F020124E2
:102B800094401C4201D0012000E0002010BD38B567
:102B9000002000900024002500BF3120FFF7DBFF5C
:102BA00005460098401C00900098B0F5A06F01D039
:102BB000002DF2D03120FFF7CEFF08B1012400E054
:102BC0000024204638BD014600209F4A106820F0AE
:102BD000F80040EAC100106070479E4908607047E5
:102BE00002460020984B586820F47C1042EA01030A
:102BF0001843954B586070479649086670470146E0
:102C00000020914A506820F003000843506070474C
:102C10008D48406800F00C007047014600208A4A49
:102C2000506820F0F00008435060704701460020D3
:102C3000854A506820F4E0600843506070470146C0
:102C40000020814A506820F4605040EAC100506082
:102C5000704729B17C4A527A02437B4B5A7204E096
:102C6000794A527A8243784B5A7270477A4908609F
:102C7000704701460020744A506820F440400843E1
:102C8000506070470021754A11706F4A82F8201019
:102C9000012802D0042808D103E001216F4A1170F5
:102CA00004E005216D4A117000E000BF00BF7047CD
:102CB0006B49086070476449096A0143624A1162BE
:102CC0007047674944390860704730B500210022D9
:102CD000002400235C4D6D6805F00C0121B104292E
:102CE00005D0082923D105E05E4D056022E05D4D49
:102CF00005601FE0544D6D6805F47012524D6D680B
:102D000005F48034022505EB92421CB9564D55431B
:102D100005600BE04C4D6D6815F4003F03D0524D3B
:102D20005543056002E04F4D5543056002E04D4DAF
:102D3000056000BF00BF444D6D6805F0F001090952
:102D40004A4D6B5C0568DD4045603F4D6D6805F49C
:102D5000E061090A454D6B5C4568DD4085603A4D90
:102D60006D6805F46051C90A404D6B5C4568DD40F3
:102D7000C560354D6D6805F44041890B3C4D6B5C79
:102D8000C568B5FBF3F5056130BD29B12E4A52691E
:102D900002432D4B5A6104E02B4A526982432A4B6D
:102DA0005A61704729B1284A92690243264B9A61B9
:102DB00004E0254A92698243234B9A61704729B106
:102DC000214AD2690243204BDA6104E01E4AD269EB
:102DD00082431D4BDA61704729B11B4AD268024316
:102DE000194BDA6004E0184AD2688243164BDA6065
:102DF000704729B1144A12690243134B1A6104E067
:102E0000114A12698243104B1A61704714494039C4
:102E1000086070470F49C86470470B49C871704714
:102E20000948406A40F0807007494862704701468F
:102E30000020054A92680A4201D0012000E00020EB
:102E40007047014988727047001002400000FFF887
:102E5000FFFFF6FE00004242D8004242201002402E
:102E60008004424200127A0000093D005C0000200C
:102E70006C000020704700000FB4044910B503AA8D
:102E8000029800F045F910BC5DF814FB58000020D2
:102E90000FB4044910B503AA029800F039F910BC28
:102EA0005DF814FB5800002030B505460B462A4655
:102EB00013F8014B12F8010B08B1A042F8D01CB175
:102EC000002802D06D1CF1E7284630BD032A40F2ED
:102ED000308010F0030C00F0158011F8013BBCF1BC
:102EE000020F624498BF11F801CB00F8013B38BFD4
:102EF00011F8013BA2F1040298BF00F801CB38BFE2
:102F000000F8013B11F0030300F0FE82083AC0F024
:102F1000088051F8043B083A51F804CBA0E80810A7
:102F2000F5E7121D5CBF51F8043B40F8043BAFF3DA
:102F30000080D20724BF11F8013B11F801CB48BF34
:102F400011F8012B24BF00F8013B00F801CB48BF6A
:102F500000F8012B70474FF000020429C0F01280E6
:102F600010F0030C00F00483CCF1040CBCF1020F50
:102F700018BF00F8012BA8BF20F8022BA1EB0C0111
:102F800000F0F6BA5FEAC17C24BF00F8012B00F81C
:102F9000012B48BF00F8012B7047704770477047FE
:102FA000704770B5044685690068C10601D53026B2
:102FB00000E02026C00708D070BDD4E901213046CA
:102FC0009047206A00F1010020626D1EF5D570BDAA
:102FD00070B5044685690078C00708D170BDD4E992
:102FE000012120209047206A00F1010020626D1E1F
:102FF000F5D570BD09684A0501D540B27047C905CD
:10300000FCD500B2704709684A0501D5C0B27047C7
:10301000C905FCD580B2704770B50C460546012A3B
:1030200005D02878800600D5EA69002302E0012354
:1030300005E05B1C934202D2E05C0028F9D1A8694C
:10304000E618C01AA861286A184428622846FFF7C3
:10305000A8FF04E0D5E9012114F8010B9047B44220
:10306000F8D32846FFF7B4FF70BD00002DE9F0410A
:103070000646002410687529314616A511D0FFF7C1
:10308000B9FF002803DAC0F1000013A507E031689A
:103090008A0701D511A502E0490704D510A501242E
:1030A00001E0FFF7B0FF00210A2306F1240707E043
:1030B000B0FBF3F203FB1200303078541046491C89
:1030C0000028F5D123462A463046BDE8F04100F0FD
:1030D000B9BA0000000000002D0000002B00000025
:1030E0002000000011680268006A530501D50870CD
:1030F0000BE0D30501D5088007E0130603D5C217FE
:10310000C1E9000201E0520608600120704700009A
:10311000074B70B50D467B4400F005FD044628467C
:1031200000F040FD10B14FF0FF3070BD204670BD83
:10313000D1DEFFFF2DE9FF5F15468A460446DFF822
:10314000AC80F8440027D8E900103E46CDE90010D5
:1031500011E03AF816106A4602A800F027FD411C5B
:1031600007D02178890603D5E269391891420ED833
:10317000074406F101062078800602D5E069B842CE
:1031800005DDAE42E5DB3AF816000028E1D1A06982
:10319000C01BA0612046FFF704FFD8E90010CDE96D
:1031A0000010002016E03AF818106A4602A800F055
:1031B000FDFC8146401C0BD000250DF1080B05E0FD
:1031C000D4E901211BF8050090476D1C4D45F7D34C
:1031D00008F10100B0428046E5DB206A38442062F5
:1031E0002046FFF7F5FEBDE8FF9F000072200000BB
:1031F0002DE9F0418046D21D22F007020025D2E9D8
:103200000002F52914A612D0002A06DA0023D0EB1A
:10321000030063EB020211A608E0D8F800108B0748
:1032200001D50FA602E0490701D50EA601251146DA
:10323000002408F1240704E000F0BFF930323A55C9
:10324000641C50EA0102F7D12B4632462146404623
:10325000BDE8F04100F0F6B9000000002D000000CC
:103260002B0000002000000030B4002100F12404F5
:103270000CE002F0070505F130054FEAD20242EA00
:103280004372655401F101014FEAD30352EA030589
:10329000EFD10468002310A2250708D504F020040C
:1032A0000C4304D0C46901230CA2641EC46130BC69
:1032B00000F0C8B910B5044621461068FFF7A3FE18
:1032C00002462046BDE810400023CDE7D21D22F083
:1032D0000701D1E90023C7E700000000300000002B
:1032E000F0B40D460188090502D5234C7C4402E068
:1032F000214C7C440E34002100F124060BE002F046
:103300000F074FEA1212E75D42EA03724FEA131306
:10331000775401F1010152EA0307F0D1027800234A
:10332000120704D5702D06D009B1113402232246AC
:10333000F0BC00F087B910340123F8E770B50446FB
:103340000D4621461068FFF75EFE024629462046DC
:10335000BDE870400023C3E7D21D22F00703D3E984
:103360000023BDE70368126843F0200303600823CD
:10337000C3610023B4E70000D01E00002DE9F05F18
:10338000894604464FF0000ADFF878B1FB44C0F8E4
:1033900020A02046E1688847002875D0252806D05F
:1033A000D4E901219047206A401C2062F1E7002601
:1033B0005F462046E16888472028054608DB312D16
:1033C00006D207EB050010F8200C08B10643F0E721
:1033D000B00701D526F00406C4F81CA00027C4F8E5
:1033E00018A02A2D09D0284601F0FDF838B304EBC7
:1033F0008708303DC8F8185019E059F8041B2046DA
:1034000004EB87029161E1688847012F054618D1D6
:10341000E069002820DA26F020061DE0D8F8180020
:1034200000EB800005EB40003038C8F8180020465B
:10343000E1688847054601F0D6F80028EED1012F53
:103440000AD02E2D08D12046E16888477F1C05460A
:10345000022F46F02006C4DBA069002803DA4042B0
:1034600046F00106A061F00701D026F010066C2D91
:103470000BD0682D09D04C2D39D06A2D35D0742D44
:1034800035D07A2D33D016E038E0E1682F4620465B
:103490008847B842054609D16C2F26D04FF480608A
:1034A000E168064320468847054604E06C2F1AD0A1
:1034B0004FF4807006430DB3A5F14100192802D8DE
:1034C000203546F400664A462946204626604E4688
:1034D000FCF768FE80B101280BD0F61D26F007002E
:1034E00000F1080955E74020E4E78020D8E70020F4
:1034F000D6E706F104094CE7284651E7206ABDE803
:10350000F09F0000581E000010B5203AC0F00B805C
:10351000B1E81850203AA0E81850B1E81850A0E8D7
:103520001850BFF4F5AF5FEA027C24BFB1E8185031
:10353000A0E8185044BF18C918C0BDE810405FEAA1
:10354000827C24BF51F8043B40F8043B08BF70471D
:10355000D20728BF31F8023B48BF11F8012B28BF22
:1035600020F8023B48BF00F8012B70474FF00002E3
:1035700000B5134694469646203922BFA0E80C5069
:10358000A0E80C50B1F12001BFF4F7AF090728BF44
:10359000A0E80C5048BF0CC05DF804EB890028BFC0
:1035A00040F8042B08BF704748BF20F8022B11F0E9
:1035B000804F18BF00F8012B704730B5B0F10A02F8
:1035C0004FEA900E71F100034EEA817EB0EB0E00DF
:1035D00061EB91014FEA101E4EEA017E10EB0E00E6
:1035E00041EB11114FEA102E4EEA016E10EB0E0066
:1035F00041EB11214FEA104E4EEA014E10EB0E0046
:1036000041EB1141401841F100014FEAD00040EA7E
:1036100041704FEAD10110EB80054FEA810444EA82
:10362000907444EB01046D1944EB0404521BA34154
:103630004FF0000348BF0A3200D530BD401C41F1B5
:10364000000130BD2DE9F0470D46994692460446EB
:1036500000F124080168880604D5E06921F0100112
:10366000216000E00120A84202DDA0EB050700E098
:103670000027A16907EB050202EB0900A1EB00009E
:10368000A0612078C00602D42046FFF78AFC0026FD
:1036900008E0D4E901211AF806009047206A401C8E
:1036A000761C20624E45F4DB2078C0060AD5204601
:1036B000FFF777FC06E0D4E9012130209047206A2B
:1036C000401C2062381EA7F10107F4DC07E0D4E9B2
:1036D000012118F805009047206A401C2062281E2E
:1036E000A5F10105F3DC2046FFF772FC2078000607
:1036F00002D50220BDE8F0870120FBE770472DE9E5
:10370000FF4F0C461E464FF0FF378BB0D2E9000149
:10371000DDF860800A908A46C1F30A5505B93D4636
:10372000002108464FF00000BAF1000F00F44000FD
:1037300005DA00EB80004FF4400101EA50004FEA47
:103740009059B9F1010F00DDB9460A9850EA4A00D4
:103750000ED044F61050A5F2FF3545432F14B8F1B2
:10376000000F1ED07542291E1EDDC9F100021CE0AB
:10377000B8F1010F4FF0000001D0302103E0F24317
:1037800005E02154401CB042FBDB30460022002102
:1037900021540B99C1F80880C1E900200FB0BDE8A1
:1037A000F08FBD1B6D1CDEE74A4600DA694206A8B1
:1037B00000F08EFA06AB07CB03AB07C350460A995D
:1037C00000F042FB8DE80700A0F500501F38009084
:1037D0000398002D09DD42F21F014A46084403A95F
:1037E0000390684600F0A1FD08E0A0F500504A46AD
:1037F0001F3803A90390684600F0ABFD8DE8070071
:103800000004000C03D04FF0FF30410800E01046E8
:10381000B8F1000F03D00022009215461FE0751E7C
:1038200006D4FFF7CAFE02F1300262556D1EF8D5CC
:10383000B3460122084302D000227F1C04E0207816
:10384000302801D100227F1E002A099787D01DE071
:10385000112D07DAFFF7B1FE303262556D1C50EAC8
:103860000102F5D108430FD10021681E05E0235C59
:10387000625C6354491C2254401E8142F7DBAB4614
:10388000A81B401E099001E0009848B1002004F8F0
:103890000B000B98099AC0F80880C0E9002B7DE75F
:1038A00011264FF000085AE72DE9F04F88460446EC
:1038B000D21D22F0070191B0D1E90001CDE90A0142
:1038C00000F07DFE02460B98C00F01D02D2007E0CE
:1038D0002068810701D52B2002E0202101EAC000E9
:1038E000032A099001D0072A05DB034641462046FA
:1038F00000F0AEF90FE12078800601D5E06900E024
:103900000620B8F1650F814606D0B8F1660F18D0D1
:10391000B8F1670F72D132E00020B9F1110F0090B9
:1039200001DB112301E009F101030AAA01A90CA896
:10393000FFF7E5FEDDE90C70002609F1010583467D
:1039400048E001204B4600904FF000470AAA01A929
:103950000CA8FFF7D4FEDDE90DB00C995D460026FA
:1039600018B909F1010001EB0005B9EB050003D41A
:10397000C0F1FF3609F10105A5EB09002BE0B9F113
:10398000010F01DA4FF001090020B9F1110F009089
:10399000484601DD112300E003460AAA01A90CA84C
:1039A000FFF7ADFEDDE90C704D460026834620781A
:1039B00000070AD4AB4500DA5D4601A8012D04DDFD
:1039C000411911F8011C302907D04F4502DA17F1CF
:1039D000040F04DA0120824610E06D1EEEE7002F8E
:1039E00002DCED1B3E4403E0781CA84200DD0546E6
:1039F000A7EB060000F1010A4FF00047207800070E
:103A000003D4AA4501DB4FF0FF3A0021B7F1004F84
:103A10000DF143088DF8431023D002202B23002FF3
:103A200001DA7F422D234FF00A0C011EA0F10100A4
:103A300000DC4FB197FBFCF10CFB11720F4602F159
:103A4000300208F8012DF0E7A8F101000370218889
:103A5000090501D5452100E06521A0F1010800F824
:103A6000011C09980FA9A1EB080707F1070700B18E
:103A7000012000EB050101EBEA70A1693844A1EBDC
:103A80000000A0F10100A0612078C00602D4204609
:103A9000FFF787FA099830B1D4E901219047206AED
:103AA00000F1010020622078C00620D52046FFF7F3
:103AB00078FA1CE0002E04DBB34502DD01A8805D2E
:103AC00000E03020D4E901219047206A761C401C98
:103AD000BAF1010A20620AD100F0B6F8C0680168A4
:103AE000405CD4E901219047206A401C2062281ED6
:103AF000A5F10105DEDC07E0D4E9012118F8010B8E
:103B00009047206A401C2062381EA7F10107F3DCB1
:103B10002046FFF75DFA022011B040E601694A1C19
:103B200002610878704700B58FB0CDE901310021FE
:103B3000059105497944CDE9031011466846FFF720
:103B40001DFC0FB000BD0000E5FFFFFF10B543698D
:103B500013B1AFF3008001E0FFF75EFA012010BD62
:103B6000127800F124010A7000224A700122EDE768
:103B700011684FF0FF32E9E710B5436913B1AFF3B5
:103B8000008001E0FFF7D6FA012010BD128800F195
:103B9000240182840022C2840122EDE711684FF0E3
:103BA000FF32E9E7007B00F08000704770B51646F1
:103BB0000C46054600F040F8036893F8010101281F
:103BC00006D0FF2C0FD8185D68B101202C7070BD95
:103BD000D3F807013246214603442846BDE8704029
:103BE00003F2071318474FF0FF3070BD754600F021
:103BF000E7F8AE4605006946534620F007008546C3
:103C000018B020B5FDF798FBBDE820404FF0000646
:103C10004FF000074FF000084FF0000B21F00701B4
:103C2000AC46ACE8C009ACE8C009ACE8C009ACE8F7
:103C3000C0098D467047000010B500F005F8001D62
:103C400010BD00BFDD09000000487047D40100200E
:103C50002DE9F0411F46044603260168072A01F4B6
:103C6000006004DB08B116A505E016A503E008B165
:103C700015A500E015A521F010002060A069C01E68
:103C8000A0610FB1401EA0612046FFF78AF94FB135
:103C9000D4E9012138469047206A401C2062C01CAC
:103CA000206206E0206AFAE7D4E9012115F8010B49
:103CB0009047761EF8D22046FFF78AF9BDE8F081DA
:103CC0004E414E006E616E00494E4600696E6600C0
:103CD0002DE9F047814616468AB035487844D0E948
:103CE000002380680092CDE90130314878440C38D7
:103CF000D0E90223006903924FF03702CDE9043086
:103D000041F69B30014491FBF2F0A0F1800502FBEB
:103D100010141B3C02D56442012000E00020DFF8B3
:103D200090A080460027FA44AAF1C60A0DE0E007F9
:103D300009D03246684607EB47010AEB810100F0E3
:103D400008FB8DE8070064107F1C002CEFD1184F92
:103D50007F44B43F17E0E80713D007EB04100DF1E0
:103D6000180A90E80E00AAE80E00C068F04201D1DF
:103D700098190890324606A903A800F0EAFA03ABA6
:103D800007C36D10641C002DE5D132466946B8F1B9
:103D9000000F03A802D000F0C8FA01E000F0D9FA41
:103DA000C9E90001C9F808200AB0BDE8F0870000A1
:103DB000981500000446AFF300802046FCF755FA42
:103DC00000487047B40100204FF0013C50F8042B2C
:103DD00051F8043B9A4221D1A2EB0C03934313EA1E
:103DE000CC1317D150F8042B51F8043B9A4215D14B
:103DF000A2EB0C03934313EACC130BD150F8042B22
:103E000051F8043B9A4209D1A2EB0C03934313EA05
:103E1000CC13DBD04FF00000704700BFD01A01BABE
:103E2000B1FA81F101F0180122FA01F0CB40C1F1A1
:103E30002001DBB2C0B2C01A2CFA01F3D11A9143AF
:103E400011EAC311E6D170475FEA400C08BF91F058
:103E5000000F4FEA8C234FEAC12243EA51514FEA47
:103E60001C5018BF00F5F0404FEA300018BF41F079
:103E700000415FEA6C5C00F02980BCF1FF3F08BFA5
:103E800040F080407047130C06BF12044FF0100C36
:103E90004FF0000C130E04BF12020CF1080C130FAC
:103EA00004BF12010CF1040C930F04BF92000CF13B
:103EB000020CD30F04BF52000CF1010C11464FF05D
:103EC0000002A0F11F00A0EB0C00704711F0004FA2
:103ED00008BF704731F000413FF4D5AF0B0C06BF6F
:103EE00009044FF0100C4FF0000C0B0E04BF090238
:103EF0000CF1080C0B0F04BF09010CF1040C8B0F23
:103F000004BF89000CF1020CCB0F04BF49000CF177
:103F1000010CCCF12003A0EB0C0022FA03F302FA0F
:103F20000CF241EA030100F10100704720F07F4CE0
:103F300080EA030023F07F47ACEB070303F57C53D3
:103F400000F0004003F1FF032DE980494FEA154BD3
:103F500009B44FEA144325EA0B4E24EA03480FF252
:103F6000042606EB132749083E785FEA320203FB7A
:103F70000667C7F5000707FB06F64FEA54374FEA16
:103F8000D64606F1020607FB066CCCF1005C4FEA50
:103F90001C472CEA074C07FB06F40CFB06F504EB68
:103FA00015464FEA961634BF00204FF000404FEA06
:103FB000D13706FB07FC4FEA1C4C0CFB0BF7D21B5E
:103FC00003FB0CF761EB07010CFB0EF7B0EB0740AE
:103FD00072EB17420CFB08F734BFA2EB0742B2EBBF
:103FE000074261EB17414FEA0C444FEA910706FB89
:103FF00007FC4FEA1C4C0CFB0BF7B0EBC74072EB15
:10400000573203FB0CF734BFA2EBC742B2EBC742F7
:1040100061EB57310CFB0EF7B0EBC70072EB577238
:104020000CFB08F734BFA2EBC702B2EBC70261EB8F
:104030005771039F4FEA816141EA921104EBCC046E
:104040004FEAD1374FEA826206FB07FC42EA901240
:104050004FEA80604FEA1C4C0CFB0BF7D21B03FBB2
:104060000CF761EB07010CFB0EF7B0EB074072EBAE
:1040700017420CFB08F734BFA2EB0742B2EB074232
:1040800061EB17414FEA8C554FEA910704EB9C24F2
:1040900006FB07FC4FEA1C4C0CFB0BF7B0EBC740D0
:1040A00072EB573203FB0CF734BFA2EBC742B2EB03
:1040B000C74261EB57310CFB0EF7B0EBC70072EB58
:1040C00057720CFB08F734BFA2EBC702B2EBC70272
:1040D00061EB577115EB4C254FEA816141EA921172
:1040E0004FEA82624FEAD13742EA901206FB07FCA0
:1040F00044F100044FEA80604FEA1C4C0CFB0BF7C4
:10410000D21B03FB0CF761EB07010CFB0EF7B0EBC6
:10411000074072EB17420CFB08F734BFA2EB0742D3
:10412000B2EB074261EB174115EB1C154FEA8131E9
:1041300041EA92414FEA823242EA90424FEA8030AD
:104140004FEA0C7644F1000448EA03434EEA0B4878
:104150004FF0000EB2EB080C71EB030724BF624670
:1041600039464EEB0E0E4FF0000B001852414941FC
:104170004BEB0B0BB2EB080C71EB03077BF1000B65
:1041800024BF624639464EEB0E0E4FF0000B00186E
:10419000524149414BEB0B0BB2EB080C71EB03079F
:1041A0007BF1000B24BF624639464EEB0E0E51EAFE
:1041B000020718BF46F0010616EB0E7655F1000215
:1041C00054F1000103D5BDE88901BDE80088BDE8D0
:1041D0008901BDE80048B619524141EB0101A3F144
:1041E0000103704780807F7E7D7C7B7A797877764B
:1041F00076757473727171706F6E6E6D6C6C6B6AC4
:104200006A69686867666665646463636261616061
:10421000605F5F5E5E5D5D5C5C5B5B5A5A595958DE
:104220005857575656555555545453535252525148
:10423000515050504F4F4F4E4E4D4D4D4C4C4C4B9E
:104240004B4B4A4A4A4949494848484747474746E5
:104250004646454545444444444343434342424221
:1042600042414141002B26D4770021D01CB54FEAB2
:10427000370703B44FF010004FF010014FF000006B
:104280000FBCBDE810400BF1010BBBF1010F08BFE3
:104290005FEA170722BF12F1010211F101014FF08D
:1042A000004143F1000300F0004043EA0000704782
:1042B000F9D35708DAE746EA064613F1400F4FEA0A
:1042C00016461FDD13F1200FDFBF16430A460021FB
:1042D00020335B42C8D0C3F1200746EA064602FA03
:1042E00007F74FEA164646EA0706C3F1200722FA07
:1042F00003F201FA07F721FA03F14FF0000342EA53
:104300000702B1E746EA020646EA06464FEA1646C3
:1043100046EA0106BCBF46EA0646360C4FF00003EB
:104320004FF000024FF000019EE72DE9C048934690
:1043300030B491E8380007C831EA400C48BF34EA8D
:10434000430C03D5FFF7F2FDFFF78CFFF0BCBDE88F
:1043500000882DE9C048934630B491E8380007C87A
:1043600010F0804F08BF13F0804F03D100F005F824
:10437000FFF778FFF0BCBDE8008820F07F4780EAB7
:10438000030023F07F4C07EB0C03A3F57C5300F0F4
:104390000040A3F1FE0392F0000F00F0B38095F00F
:1043A000000F00F077802DE901494FEA11404FEAF4
:1043B000144621EA004800FB06FC24EA064708FBF5
:1043C00006F607FB08F800FB07F718EB06484CEB6E
:1043D000164C4FEA124B18EB07484FEA15464CEBC8
:1043E000174022EA0B4E0BFB06FC25EA06470EFBA4
:1043F00006F607FB0EFE0BFB07F71EEB064E4CEB1B
:10440000164C4FF000061EEB074E4CEB174B18EB0B
:104410000B0840F1000018EB0E0B58EB000840F1C0
:1044200000008F1A4FF000013CBFC943661B14BF48
:10443000B5EB040C00213CBFC943F61B4FEA1744FF
:104440004EEA8E0E27EA04454FEA1C4704FB07623A
:104450002CEA074C05FB07F70CFB05F604FB0CFCEC
:1044600016EB074642EB174216EB0C4642EB1C429A
:104470001BEB060658EB0202414146EA9E0601D5B7
:10448000BDE80189B619524141EB0101A3F10103D5
:10449000BDE801894FEA14454FEA114724EA054671
:1044A00021EA074C05FB07F406FB07F70CFB06F1B6
:1044B00005FB0CFC11EB074144EB17444FEA124794
:1044C00011EB0C4144EB1C4422EA074C05FB07F2BC
:1044D00006FB07F70CFB06F605FB0CFC16EB074684
:1044E00042EB174216EB0C4642EB1C456A1854F19E
:1044F000000148BF7047B619524141EB0101A3F1D9
:104500000103704795F0000F37D04FEA11424FEA90
:10451000144721EA024624EA074C02FB07F106FB96
:1045200007F70CFB06F402FB0CFC14EB074441EB11
:1045300017414FEA154714EB0C4441EB1C4125EAA7
:10454000074C02FB07F506FB07F70CFB06F602FB20
:104550000CFC16EB074645EB174516EB0C4645EBF6
:104560001C42121951F1000148BF7047B61952415F
:1045700041EB0101A3F1010370474FEA14454FEAF3
:10458000114724EA054621EA074C05FB07F106FB23
:1045900007F70CFB06F24FF0000605FB0CFC12EBD4
:1045A000074241EB174112EB0C4251EB1C4148BF53
:1045B0007047921841EB0101A3F1010370474900D4
:1045C00050EAC12018BF04204A0D18BF40F0010076
:1045D00040F2FF72B2EB515F08BF40F002000128C9
:1045E00008BF0520704730380A2801D201207047E3
:1045F0000020704710B500290AD00878002807D09D
:1046000005487844FFF7E0FB002801D0002010BDEA
:104610000248784410BD0000AE0C0000A60C00005B
:1046200010B500290AD00878002807D0054878443A
:10463000FFF7CAFB002801D0002010BD02487844D3
:1046400010BD00009E0C0000960C000021F00042FE
:10465000A2F16052B2F5801F01F0004328BFD2F1F1
:104660007F6C0BD95FEA001C43EAC20242EB507038
:1046700018BF704728BF20F001007047B2F5801FB7
:10468000BCBF184670474FEA410C1CF5001F02D210
:10469000084600F014BD70B500F070F90000008904
:1046A000FFF7F6BF4FF00040A0F580007047000014
:1046B00010B591EA030F48BF83F0004300F1BA81BF
:1046C000841A71EB030C05D2121943EB0C03001B87
:1046D00061EB0C01DFF824E14FEA1154A4EB135C09
:1046E0001EEA430F18BF9EEA445F73D023EA0E030D
:1046F000DCF1200E21EA045143F4801332D322FA74
:104700000CFE10EB0E0023FA0CFE41EB0E01CCF177
:10471000200E03FA0EFE10EB0E0051F10001B1F570
:10472000801FCCF1200E32D201EB045112FA0EF2AE
:10473000BDE8104058BF7047401C38BF5FEA4202D6
:1047400018BF7047002814BF20F0010041F100019C
:104750004FEA410313F5001F38BF7047A1F1C04174
:1047600000F05AB9012A43EB0302ACF1200CDCF152
:104770001F0E32BF4FF0000E23FA0CF310EB0300B4
:1047800041EB0451B4EB115FD0D0A1EB045101F522
:10479000801149085FEA300001EB04510ED350F15B
:1047A000000038BF12FA0EFE08D1BDE81040C9E77C
:1047B000401C38BF5FEA4202CAD1C3E7BDE81040DF
:1047C0004FEA410313F5001F38BF7047A1F1C04104
:1047D00000F022B99EEA445F08D011EA5E0FBDE8FE
:1047E000104004BF01F0004100207047BDE81040B8
:1047F00070B500F0C3F800BF64FBBE3E0000E0FFF0
:10480000B0FA80F310FA03F10AD0C3F11D0303F5E7
:1048100080634FEA41504FEA035202EBD1217047C7
:104820004FF0000070470000DFF848C170B51CEA87
:10483000111E1EBF1CEA13159EEA0C0F95EA0C0F01
:1048400000F06F8081EA030423EA4C134EEAD47E21
:1048500021EA4C1141F4801143F48013AE44A1FBD2
:10486000024CA0FB0365AEF17F7E361955EB0C05BB
:10487000A1FB034C4CF10003A0FB021C16EB0C0641
:10488000654153F10003094218BF46F0010613F4D5
:10489000007F0BD14FEA03314FEA0530340341EA80
:1048A000155140EA16506FF003020AE04FEAC321A7
:1048B0004FEAC520F40241EA555140EA56506FF0E4
:1048C000020202EB2E4201EB025585EACE710AD0BC
:1048D0005FEA440C18BF24F0004450F1000041F19D
:1048E000000120EAD47040F2FE7C624500D270BD27
:1048F000A84214BF4FF080444FF04044002E08BF40
:104900000024BEF1806FA8BFA1F1C041BDE8704096
:1049100080F282804FF0000001F1C04101F00041BF
:1049200070479EEA0C0F0CEA131518BF95EA0C0F9E
:1049300006D04FF0000081EA030E0EF0004170BD7A
:1049400000F01CF88900013E00F007B800F009B83B
:104950004FEA430C5FEA5C5C08D081EA030100F097
:104960005BB84FEA410C5FEA5C5CF6D14FF00000A7
:10497000014970470000FF070000F87F0EF1020EAA
:104980002EF0030E5EF8046B364205D4012A43EB89
:10499000030515F5001F12D8012841EB010C1CF589
:1049A000001F0CD80ED14FEAD17C15F5001F0CEB7F
:1049B0004C0C0CF1020C08BF4CEBD37C04E04FF024
:1049C000080C01E04FEAD37C0CEB4C0526FA05F607
:1049D00006F00706B6F1040C06D20EEB860CBDE815
:1049E00070404CF0010C6047DFE80CF0090B02024C
:1049F0004FF000414FF00000A1F5002170BD1946B5
:104A00001046012851EB010418BFD4F5001484BFEF
:104A1000002001F0004170BD0808A0F500114FEA28
:104A20003101704710B591EA030F48BF83F000438E
:104A30003FF546AE841A71EB030C07D212198CF0C5
:104A4000004C43EB0C03001B61EB0C01DFF8A4E10D
:104A50004FEA1154A4EB135C1EEA430F18BF9EEA01
:104A6000445F00F0B08023EA6E03524221EA045111
:104A7000C3EB6E0338BF5B1EDCF1200E25D322FA98
:104A80000CFE10EB0E0043FA0CFE41EB0E01CCF1D4
:104A9000200E03FA0EFE10EB0E0051F10001CCF1D6
:104AA000200E29D412FA0EF201EB0451BDE8104099
:104AB00058BF7047401C1CBFB2F1004F7047002820
:104AC0000CBF491C20F00100704712EB020E43EBB3
:104AD000030218BF4FF0010E4EEA4202ACF1200C67
:104AE000DCF11E0E54D943FA0CFE10EB0E0051F10E
:104AF000FF31CCF11E0ED5D50EF1010E12FA0EFECD
:104B0000404141EB010101EB445C5FEA5C5C10D980
:104B100010EBDE7001EB045138BFBEF1004FBDE871
:104B2000104018BF704700280CBF491C20F001003E
:104B3000704730D24FEAD42C11F5001124F40064F0
:104B40001BD0B1FA81F20B3AA41AA41ED2F12003B1
:104B5000914030FA03F31943904001EBCC71002CE3
:104B600001EB0451BDE81040A8BF704701F1C041FE
:104B70004FF0000001F000417047B0FA80F310FAE6
:104B800003F100D110BDE41A173C4805C90AE4E757
:104B900001EB045110BD491001EB0451BDE8104078
:104BA0004FEA300002E04FF0000170474A0008BFB2
:104BB0000042F8D0B2F5001F28BF704701F0004155
:104BC0004FF0000070479EEA445F07D011EA5E0F85
:104BD000BDE8104004BF002100207047BDE8104030
:104BE00070B5FFF7CBFE00BF40DFF63E83F000411B
:104BF000104670470000E0FF43004FEAD30C4FEA35
:104C00003C0C43401FBF40070CF1605113F0FE4FB6
:104C100070471CF0006F03D100200CF0004170477A
:104C20000CF0004343EA507010B540EACC0000F0AD
:104C300000FA00BF000000924FEA0001FFF7ECBE4F
:104C40004FF000414FF00000A1F500217047000037
:104C500090EA010F48BF81F0004100F13C82421A06
:104C60003CBF801A89184FEAD0524FF07F4C1CEAA3
:104C7000410FA2EBD15318BF9CEA026F00F03B80BA
:104C80004FF0004C4CEA00204CEA012121FA03FCD1
:104C900010EB0C0C1ED202F1FF325FEA1C2040EB3D
:104CA000C25038BF70471CF07F0F4FEA400C18BF4E
:104CB000BCF17F4F38BF7047C3F12003994008BF54
:104CC00020F00100BCF17F4F38BF7047A0F1C04019
:104CD00000F0F5B94FEA3C00000A40EBC25028BF93
:104CE0001CF0FF0F4FEA400CE6D018BFBCF17F4F1D
:104CF00038BF7047EAE79CEA026F05D010EA5C0F04
:104D000008BF00F00040704710B500F092F900BFF6
:104D100064FBBE3E4FF47F0C1CEAD0121EBF1CEA9F
:104D2000D11392EA0C0F93EA0C0F00F0858090EA01
:104D3000010F48BF42F4807240F4000C41F40000BF
:104D40002CF07F4120F07F4000B58142A2EB0302AE
:104D50000FF2081CACEB504EC0F100009EF800E0D2
:104D60004FEA4E0E00FB0EFC38BF49004FEA2C1CE8
:104D700002F5FA020CFB0EF34FEACE1E4FEA112C9D
:104D80004FEAC1210EEB635E42EB22420EFB0CFCAC
:104D90004FEA1C5300FB03114FEA112C4FEA01317B
:104DA0000EFB0CFC4FEADC4C00FB0C11C14228BF8F
:104DB00009184CEB03335DF804EB10EB410143EBB6
:104DC000C250B2F57C0F38BF704729D512F0F00FF2
:104DD0001CBF00F1C04000F000407047008182839A
:104DE0008485868788898B8C8D8E8F9192939596FA
:104DF00097999A9C9D9FA0A2A3A5A7A8AAACAEB084
:104E0000B2B3B5B7B9BCBEC0C2C5C7C9CCCED1D488
:104E1000D7D9DCDFE2E6E9ECF0F3F7FAFE000000B8
:104E20004FEA400C0CF1807CBCF17E4F28BF7047EC
:104E3000B0F1C04000F043B990EA010F0CEAD11381
:104E400048BF42F48072624538BF634507D213F40D
:104E50007F0F16D080EA010000F00040704710B5C7
:104E600000F0E7F8097EFC3E00F005B880EA01009A
:104E700000F00040704780EA010000F0004000F0C0
:104E80001EB912F47F0F04BF0248704780EA010088
:104E900000F015B90000C07FC10DD1F19E0206DB04
:104EA0004FEA002343F0004323FA02F07047004228
:104EB00007D54FEA4001B1F1FE4F02D24FF000009A
:104EC000704710B500F0B5F8499224800020704773
:104ED0006FEA20007047000010F0004148BF4042D8
:104EE000B0FA80F310FA03F2C3F19D030BD051EA3C
:104EF000C35101EB1220530638BF704700F1010087
:104F000008BF20F001007047B0FA80F310FA03F2F6
:104F1000C3F19D030AD0D90501EB1220530638BF17
:104F2000704700F1010008BF20F001007047000049
:104F30004FF47F0C1CEAD0121EBF1CEAD11392EA78
:104F40000C0F93EA0C0F00F0478090EA010F48BF66
:104F500042F480724FF0004C4CEA00204CEA0121F0
:104F600002EB0302A0FB0113A2F50002002918BF07
:104F700043F001035B0028BF4FEA330342EB2242B8
:104F80005FEA132C4CEBC2502EBFBCEB436FB2F563
:104F90007C0F70474FEA036CBCF1004F08BF20F054
:104FA0000100B2F57C0F38BF70470BD582F0FF02CD
:104FB00012F5803FC8BF704700F1C040D8BF00F075
:104FC0000040704700F5000C5FEA4C0C48BF70478A
:104FD000B0F1C04000F073B890EA010F0CEAD113B1
:104FE00048BF42F48072624538BF634504D280EA0C
:104FF000010000F00040704710B500F01AF800BF43
:105000008900013E00F007B800F009B85FEA410CE2
:105010005FEA1C6C08D080EA010000F050B85FEA3B
:10502000400C5FEA1C6CF6D14FF00040A0F5800008
:1050300070470EF1020E2EF0030E5EF8044B244270
:1050400004D44FEA4102B2F17F4F11D84FEA400336
:10505000B3F17F4F0CD80ED14FEAD07CB2F17F4F25
:105060000CEB4C0C0CF1020C08BF4CEBD17C04E0B7
:105070004FF0080C01E04FEAD17C0CEB4C0324FA12
:1050800003F404F00704B4F1040C06D20EEB840C14
:10509000BDE810404CF0010C6047DFE80CF0070859
:1050A00002024FF00040A0F5800010BD084642000B
:1050B00018BFD2F1807288BF00F0004010BDFF2100
:1050C00041EAD050C005704790EA010F48BF81F017
:1050D00000413FF5C4AD421A04D882F00042A0EB73
:1050E000020011444FEAD0524FF07F4C1CEA410FAE
:1050F000A2EBD15318BF9CEA026F4AD04FF0004C8C
:105100004CEA00204CEA012121FA03FCB0EB0C0C24
:105110000FD412F0FE0F36D05FEA4C001DD50012FE
:1051200040EBC25038BF70471CF03F0F18BF7047AC
:105130000BE0A2F101025FEA1C2040EBC25038BF35
:1051400070471CF07F0F18BF7047C3F120039940D0
:1051500014BF401E20F00100704780084FEA122360
:1051600008BF7047B0FA80FCA2EB0C02CCF1280C0F
:1051700060FA0CF093EA122F04BF00EBC2507047A4
:105180004FEAC3707047130A5FEADC1008BF70472C
:10519000F6E79CEA026F04D010EA5C0F08BF00201B
:1051A000704710B5FFF745FF40DFF63E81F0004045
:1051B0007047FEF779BB000000000000000000000F
:1051C000303132333435363738394142434445463D
:1051D0004030580030313233343536373839616237
:1051E0006364656640307800040000080000000039
:1051F000000000020001000010000000024000005A
:10520000000000A00000000005400000000000C8F1
:10521000000000000C4000000000409C0000000066
:10522000194000000020BCBE000000003440000017
:10523000BFC91B8E00000004B5400000504BCFD00A
:105240006607E2CF010000006C4100003E8251AAD7
:10525000DFEEA73401000000D9420000DCB5A0E277
:105260003A301F97FFFFFFFFB4450000FD25A0C89F
:10527000E9A3C14FFFFFFFFFFF3F000000000080D8
:1052800000000000FF3F0000000000800000000060
:10529000DC53000800000020700000006C010008D2
:1052A0004C54000870000020A80700008801000886
:1052B0001C00000043000000F8FFFFFF0C0000008E
:1052C0000E0000000F0000002E0000001001000082
:1052D00043000000F8FFFFFF0040404040404040D6
:1052E00040404141414141404040404040404040B9
:1052F000404040404040404040050202020202025D
:1053000002020202020202020220202020202020AB
:1053100020202002020202020202909090909090BF
:10532000101010101010101010101010101010107D
:1053300010101010020202020202888888888888F1
:1053400008080808080808080808080808080808DD
:1053500008080808020202024000000000000000E5
:10536000000000000000000000000000000000003D
:10537000000000000000000000000000000000002D
:10538000000000000000000000000000000000001D
:10539000000000000000000000000000000000000D
:1053A00000000000000000000000000000000000FD
:1053B00000000000000000000000000000000000ED
:1053C00000000000000000000000000000000000DD
:1053D00000000000000000000000000000A24A04DD
:1053E0000000000000000000010203040607080995
:1053F00000000000000000000000000000000000AD
:10540000000000000000000000000000000000009C
:10541000000000000000000000000000000000008C
:10542000000000000000000000000000000000007C
:105430000000000000000000000000000102030462
:0C54400001020304060708090204060824
:0400000508000131BD
:00000001FF
